{
  "_format": "hh-sol-artifact-1",
  "contractName": "Adopt",
  "sourceName": "contracts/Adopt.sol",
  "abi": [
    {
      "inputs": [
        {
          "internalType": "string",
          "name": "_name",
          "type": "string"
        },
        {
          "internalType": "string",
          "name": "_symbol",
          "type": "string"
        }
      ],
      "stateMutability": "nonpayable",
      "type": "constructor"
    },
    {
      "anonymous": false,
      "inputs": [
        {
          "indexed": true,
          "internalType": "address",
          "name": "owner",
          "type": "address"
        },
        {
          "indexed": true,
          "internalType": "address",
          "name": "approved",
          "type": "address"
        },
        {
          "indexed": true,
          "internalType": "uint256",
          "name": "tokenId",
          "type": "uint256"
        }
      ],
      "name": "Approval",
      "type": "event"
    },
    {
      "anonymous": false,
      "inputs": [
        {
          "indexed": true,
          "internalType": "address",
          "name": "owner",
          "type": "address"
        },
        {
          "indexed": true,
          "internalType": "address",
          "name": "operator",
          "type": "address"
        },
        {
          "indexed": false,
          "internalType": "bool",
          "name": "approved",
          "type": "bool"
        }
      ],
      "name": "ApprovalForAll",
      "type": "event"
    },
    {
      "anonymous": false,
      "inputs": [
        {
          "indexed": true,
          "internalType": "address",
          "name": "previousOwner",
          "type": "address"
        },
        {
          "indexed": true,
          "internalType": "address",
          "name": "newOwner",
          "type": "address"
        }
      ],
      "name": "OwnershipTransferred",
      "type": "event"
    },
    {
      "anonymous": false,
      "inputs": [
        {
          "indexed": true,
          "internalType": "address",
          "name": "from",
          "type": "address"
        },
        {
          "indexed": true,
          "internalType": "address",
          "name": "to",
          "type": "address"
        },
        {
          "indexed": true,
          "internalType": "uint256",
          "name": "tokenId",
          "type": "uint256"
        }
      ],
      "name": "Transfer",
      "type": "event"
    },
    {
      "inputs": [
        {
          "internalType": "address",
          "name": "to",
          "type": "address"
        },
        {
          "internalType": "uint256",
          "name": "tokenId",
          "type": "uint256"
        }
      ],
      "name": "approve",
      "outputs": [],
      "stateMutability": "nonpayable",
      "type": "function"
    },
    {
      "inputs": [
        {
          "internalType": "address",
          "name": "owner",
          "type": "address"
        }
      ],
      "name": "balanceOf",
      "outputs": [
        {
          "internalType": "uint256",
          "name": "",
          "type": "uint256"
        }
      ],
      "stateMutability": "view",
      "type": "function"
    },
    {
      "inputs": [
        {
          "internalType": "uint256",
          "name": "tokenId",
          "type": "uint256"
        }
      ],
      "name": "getApproved",
      "outputs": [
        {
          "internalType": "address",
          "name": "",
          "type": "address"
        }
      ],
      "stateMutability": "view",
      "type": "function"
    },
    {
      "inputs": [],
      "name": "getCost",
      "outputs": [
        {
          "internalType": "uint256",
          "name": "",
          "type": "uint256"
        }
      ],
      "stateMutability": "view",
      "type": "function"
    },
    {
      "inputs": [],
      "name": "getNFTCost",
      "outputs": [
        {
          "internalType": "uint256",
          "name": "",
          "type": "uint256"
        }
      ],
      "stateMutability": "view",
      "type": "function"
    },
    {
      "inputs": [
        {
          "internalType": "address",
          "name": "owner",
          "type": "address"
        },
        {
          "internalType": "address",
          "name": "operator",
          "type": "address"
        }
      ],
      "name": "isApprovedForAll",
      "outputs": [
        {
          "internalType": "bool",
          "name": "",
          "type": "bool"
        }
      ],
      "stateMutability": "view",
      "type": "function"
    },
    {
      "inputs": [
        {
          "internalType": "address",
          "name": "recipient",
          "type": "address"
        },
        {
          "internalType": "string",
          "name": "tokenURI",
          "type": "string"
        }
      ],
      "name": "mintNFT",
      "outputs": [
        {
          "internalType": "uint256",
          "name": "",
          "type": "uint256"
        }
      ],
      "stateMutability": "nonpayable",
      "type": "function"
    },
    {
      "inputs": [],
      "name": "name",
      "outputs": [
        {
          "internalType": "string",
          "name": "",
          "type": "string"
        }
      ],
      "stateMutability": "view",
      "type": "function"
    },
    {
      "inputs": [],
      "name": "owner",
      "outputs": [
        {
          "internalType": "address",
          "name": "",
          "type": "address"
        }
      ],
      "stateMutability": "view",
      "type": "function"
    },
    {
      "inputs": [
        {
          "internalType": "uint256",
          "name": "tokenId",
          "type": "uint256"
        }
      ],
      "name": "ownerOf",
      "outputs": [
        {
          "internalType": "address",
          "name": "",
          "type": "address"
        }
      ],
      "stateMutability": "view",
      "type": "function"
    },
    {
      "inputs": [],
      "name": "renounceOwnership",
      "outputs": [],
      "stateMutability": "nonpayable",
      "type": "function"
    },
    {
      "inputs": [
        {
          "internalType": "address",
          "name": "from",
          "type": "address"
        },
        {
          "internalType": "address",
          "name": "to",
          "type": "address"
        },
        {
          "internalType": "uint256",
          "name": "tokenId",
          "type": "uint256"
        }
      ],
      "name": "safeTransferFrom",
      "outputs": [],
      "stateMutability": "nonpayable",
      "type": "function"
    },
    {
      "inputs": [
        {
          "internalType": "address",
          "name": "from",
          "type": "address"
        },
        {
          "internalType": "address",
          "name": "to",
          "type": "address"
        },
        {
          "internalType": "uint256",
          "name": "tokenId",
          "type": "uint256"
        },
        {
          "internalType": "bytes",
          "name": "data",
          "type": "bytes"
        }
      ],
      "name": "safeTransferFrom",
      "outputs": [],
      "stateMutability": "nonpayable",
      "type": "function"
    },
    {
      "inputs": [
        {
          "internalType": "address",
          "name": "operator",
          "type": "address"
        },
        {
          "internalType": "bool",
          "name": "approved",
          "type": "bool"
        }
      ],
      "name": "setApprovalForAll",
      "outputs": [],
      "stateMutability": "nonpayable",
      "type": "function"
    },
    {
      "inputs": [
        {
          "internalType": "bytes4",
          "name": "interfaceId",
          "type": "bytes4"
        }
      ],
      "name": "supportsInterface",
      "outputs": [
        {
          "internalType": "bool",
          "name": "",
          "type": "bool"
        }
      ],
      "stateMutability": "view",
      "type": "function"
    },
    {
      "inputs": [],
      "name": "symbol",
      "outputs": [
        {
          "internalType": "string",
          "name": "",
          "type": "string"
        }
      ],
      "stateMutability": "view",
      "type": "function"
    },
    {
      "inputs": [
        {
          "internalType": "uint256",
          "name": "tokenId",
          "type": "uint256"
        }
      ],
      "name": "tokenURI",
      "outputs": [
        {
          "internalType": "string",
          "name": "",
          "type": "string"
        }
      ],
      "stateMutability": "view",
      "type": "function"
    },
    {
      "inputs": [
        {
          "internalType": "address",
          "name": "from",
          "type": "address"
        },
        {
          "internalType": "address",
          "name": "to",
          "type": "address"
        },
        {
          "internalType": "uint256",
          "name": "tokenId",
          "type": "uint256"
        }
      ],
      "name": "transferFrom",
      "outputs": [],
      "stateMutability": "nonpayable",
      "type": "function"
    },
    {
      "inputs": [
        {
          "internalType": "address",
          "name": "newOwner",
          "type": "address"
        }
      ],
      "name": "transferOwnership",
      "outputs": [],
      "stateMutability": "nonpayable",
      "type": "function"
    },
    {
      "inputs": [
        {
          "internalType": "uint256",
          "name": "cost",
          "type": "uint256"
        }
      ],
      "name": "updateCost",
      "outputs": [],
      "stateMutability": "nonpayable",
      "type": "function"
    }
  ],
  "bytecode": "0x6080604052662386f26fc100006008553480156200001c57600080fd5b5060405162003165380380620031658339818101604052810190620000429190620003bb565b818181600090805190602001906200005c9291906200016e565b508060019080519060200190620000759291906200016e565b505050620000986200008c620000a060201b60201c565b620000a860201b60201c565b5050620004a5565b600033905090565b6000600760009054906101000a900473ffffffffffffffffffffffffffffffffffffffff16905081600760006101000a81548173ffffffffffffffffffffffffffffffffffffffff021916908373ffffffffffffffffffffffffffffffffffffffff1602179055508173ffffffffffffffffffffffffffffffffffffffff168173ffffffffffffffffffffffffffffffffffffffff167f8be0079c531659141344cd1fd0a4f28419497f9722a3daafe3b4186f6b6457e060405160405180910390a35050565b8280546200017c906200046f565b90600052602060002090601f016020900481019282620001a05760008555620001ec565b82601f10620001bb57805160ff1916838001178555620001ec565b82800160010185558215620001ec579182015b82811115620001eb578251825591602001919060010190620001ce565b5b509050620001fb9190620001ff565b5090565b5b808211156200021a57600081600090555060010162000200565b5090565b6000604051905090565b600080fd5b600080fd5b600080fd5b600080fd5b6000601f19601f8301169050919050565b7f4e487b7100000000000000000000000000000000000000000000000000000000600052604160045260246000fd5b62000287826200023c565b810181811067ffffffffffffffff82111715620002a957620002a86200024d565b5b80604052505050565b6000620002be6200021e565b9050620002cc82826200027c565b919050565b600067ffffffffffffffff821115620002ef57620002ee6200024d565b5b620002fa826200023c565b9050602081019050919050565b60005b83811015620003275780820151818401526020810190506200030a565b8381111562000337576000848401525b50505050565b6000620003546200034e84620002d1565b620002b2565b90508281526020810184848401111562000373576200037262000237565b5b6200038084828562000307565b509392505050565b600082601f830112620003a0576200039f62000232565b5b8151620003b28482602086016200033d565b91505092915050565b60008060408385031215620003d557620003d462000228565b5b600083015167ffffffffffffffff811115620003f657620003f56200022d565b5b620004048582860162000388565b925050602083015167ffffffffffffffff8111156200042857620004276200022d565b5b620004368582860162000388565b9150509250929050565b7f4e487b7100000000000000000000000000000000000000000000000000000000600052602260045260246000fd5b600060028204905060018216806200048857607f821691505b602082108114156200049f576200049e62000440565b5b50919050565b612cb080620004b56000396000f3fe608060405234801561001057600080fd5b506004361061012c5760003560e01c806379c501a4116100ad578063bd3e19d411610071578063bd3e19d41461031b578063c87b56dd14610339578063e985e9c514610369578063eacabe1414610399578063f2fde38b146103c95761012c565b806379c501a4146102895780638da5cb5b146102a757806395d89b41146102c5578063a22cb465146102e3578063b88d4fde146102ff5761012c565b806323c5a088116100f457806323c5a088146101e757806342842e0e146102035780636352211e1461021f57806370a082311461024f578063715018a61461027f5761012c565b806301ffc9a71461013157806306fdde0314610161578063081812fc1461017f578063095ea7b3146101af57806323b872dd146101cb575b600080fd5b61014b60048036038101906101469190611b82565b6103e5565b6040516101589190611bca565b60405180910390f35b6101696104c7565b6040516101769190611c7e565b60405180910390f35b61019960048036038101906101949190611cd6565b610559565b6040516101a69190611d44565b60405180910390f35b6101c960048036038101906101c49190611d8b565b61059f565b005b6101e560048036038101906101e09190611dcb565b6106b7565b005b61020160048036038101906101fc9190611cd6565b610717565b005b61021d60048036038101906102189190611dcb565b610729565b005b61023960048036038101906102349190611cd6565b610749565b6040516102469190611d44565b60405180910390f35b61026960048036038101906102649190611e1e565b6107fb565b6040516102769190611e5a565b60405180910390f35b6102876108b3565b005b6102916108c7565b60405161029e9190611e5a565b60405180910390f35b6102af6108d1565b6040516102bc9190611d44565b60405180910390f35b6102cd6108fb565b6040516102da9190611c7e565b60405180910390f35b6102fd60048036038101906102f89190611ea1565b61098d565b005b61031960048036038101906103149190612016565b6109a3565b005b610323610a05565b6040516103309190611e5a565b60405180910390f35b610353600480360381019061034e9190611cd6565b610a0f565b6040516103609190611c7e565b60405180910390f35b610383600480360381019061037e9190612099565b610b22565b6040516103909190611bca565b60405180910390f35b6103b360048036038101906103ae919061217a565b610bb6565b6040516103c09190611e5a565b60405180910390f35b6103e360048036038101906103de9190611e1e565b610bee565b005b60007f80ac58cd000000000000000000000000000000000000000000000000000000007bffffffffffffffffffffffffffffffffffffffffffffffffffffffff1916827bffffffffffffffffffffffffffffffffffffffffffffffffffffffff191614806104b057507f5b5e139f000000000000000000000000000000000000000000000000000000007bffffffffffffffffffffffffffffffffffffffffffffffffffffffff1916827bffffffffffffffffffffffffffffffffffffffffffffffffffffffff1916145b806104c057506104bf82610c72565b5b9050919050565b6060600080546104d690612205565b80601f016020809104026020016040519081016040528092919081815260200182805461050290612205565b801561054f5780601f106105245761010080835404028352916020019161054f565b820191906000526020600020905b81548152906001019060200180831161053257829003601f168201915b5050505050905090565b600061056482610cdc565b6004600083815260200190815260200160002060009054906101000a900473ffffffffffffffffffffffffffffffffffffffff169050919050565b60006105aa82610749565b90508073ffffffffffffffffffffffffffffffffffffffff168373ffffffffffffffffffffffffffffffffffffffff16141561061b576040517f08c379a0000000000000000000000000000000000000000000000000000000008152600401610612906122a9565b60405180910390fd5b8073ffffffffffffffffffffffffffffffffffffffff1661063a610d27565b73ffffffffffffffffffffffffffffffffffffffff161480610669575061066881610663610d27565b610b22565b5b6106a8576040517f08c379a000000000000000000000000000000000000000000000000000000000815260040161069f9061233b565b60405180910390fd5b6106b28383610d2f565b505050565b6106c86106c2610d27565b82610de8565b610707576040517f08c379a00000000000000000000000000000000000000000000000000000000081526004016106fe906123cd565b60405180910390fd5b610712838383610e7d565b505050565b61071f6110e4565b8060088190555050565b610744838383604051806020016040528060008152506109a3565b505050565b6000806002600084815260200190815260200160002060009054906101000a900473ffffffffffffffffffffffffffffffffffffffff169050600073ffffffffffffffffffffffffffffffffffffffff168173ffffffffffffffffffffffffffffffffffffffff1614156107f2576040517f08c379a00000000000000000000000000000000000000000000000000000000081526004016107e990612439565b60405180910390fd5b80915050919050565b60008073ffffffffffffffffffffffffffffffffffffffff168273ffffffffffffffffffffffffffffffffffffffff16141561086c576040517f08c379a0000000000000000000000000000000000000000000000000000000008152600401610863906124cb565b60405180910390fd5b600360008373ffffffffffffffffffffffffffffffffffffffff1673ffffffffffffffffffffffffffffffffffffffff168152602001908152602001600020549050919050565b6108bb6110e4565b6108c56000611162565b565b6000600854905090565b6000600760009054906101000a900473ffffffffffffffffffffffffffffffffffffffff16905090565b60606001805461090a90612205565b80601f016020809104026020016040519081016040528092919081815260200182805461093690612205565b80156109835780601f1061095857610100808354040283529160200191610983565b820191906000526020600020905b81548152906001019060200180831161096657829003601f168201915b5050505050905090565b61099f610998610d27565b8383611228565b5050565b6109b46109ae610d27565b83610de8565b6109f3576040517f08c379a00000000000000000000000000000000000000000000000000000000081526004016109ea906123cd565b60405180910390fd5b6109ff84848484611395565b50505050565b6000600854905090565b6060610a1a82610cdc565b6000600660008481526020019081526020016000208054610a3a90612205565b80601f0160208091040260200160405190810160405280929190818152602001828054610a6690612205565b8015610ab35780601f10610a8857610100808354040283529160200191610ab3565b820191906000526020600020905b815481529060010190602001808311610a9657829003601f168201915b505050505090506000610ac46113f1565b9050600081511415610ada578192505050610b1d565b600082511115610b0f578082604051602001610af7929190612527565b60405160208183030381529060405292505050610b1d565b610b1884611408565b925050505b919050565b6000600560008473ffffffffffffffffffffffffffffffffffffffff1673ffffffffffffffffffffffffffffffffffffffff16815260200190815260200160002060008373ffffffffffffffffffffffffffffffffffffffff1673ffffffffffffffffffffffffffffffffffffffff16815260200190815260200160002060009054906101000a900460ff16905092915050565b6000610bc26009611470565b6000610bce6009611486565b9050610bda8482611494565b610be4818461166e565b8091505092915050565b610bf66110e4565b600073ffffffffffffffffffffffffffffffffffffffff168173ffffffffffffffffffffffffffffffffffffffff161415610c66576040517f08c379a0000000000000000000000000000000000000000000000000000000008152600401610c5d906125bd565b60405180910390fd5b610c6f81611162565b50565b60007f01ffc9a7000000000000000000000000000000000000000000000000000000007bffffffffffffffffffffffffffffffffffffffffffffffffffffffff1916827bffffffffffffffffffffffffffffffffffffffffffffffffffffffff1916149050919050565b610ce5816116e2565b610d24576040517f08c379a0000000000000000000000000000000000000000000000000000000008152600401610d1b90612439565b60405180910390fd5b50565b600033905090565b816004600083815260200190815260200160002060006101000a81548173ffffffffffffffffffffffffffffffffffffffff021916908373ffffffffffffffffffffffffffffffffffffffff160217905550808273ffffffffffffffffffffffffffffffffffffffff16610da283610749565b73ffffffffffffffffffffffffffffffffffffffff167f8c5be1e5ebec7d5bd14f71427d1e84f3dd0314c0f7b2291e5b200ac8c7c3b92560405160405180910390a45050565b600080610df483610749565b90508073ffffffffffffffffffffffffffffffffffffffff168473ffffffffffffffffffffffffffffffffffffffff161480610e365750610e358185610b22565b5b80610e7457508373ffffffffffffffffffffffffffffffffffffffff16610e5c84610559565b73ffffffffffffffffffffffffffffffffffffffff16145b91505092915050565b8273ffffffffffffffffffffffffffffffffffffffff16610e9d82610749565b73ffffffffffffffffffffffffffffffffffffffff1614610ef3576040517f08c379a0000000000000000000000000000000000000000000000000000000008152600401610eea9061264f565b60405180910390fd5b600073ffffffffffffffffffffffffffffffffffffffff168273ffffffffffffffffffffffffffffffffffffffff161415610f63576040517f08c379a0000000000000000000000000000000000000000000000000000000008152600401610f5a906126e1565b60405180910390fd5b610f6e83838361174e565b610f79600082610d2f565b6001600360008573ffffffffffffffffffffffffffffffffffffffff1673ffffffffffffffffffffffffffffffffffffffff1681526020019081526020016000206000828254610fc99190612730565b925050819055506001600360008473ffffffffffffffffffffffffffffffffffffffff1673ffffffffffffffffffffffffffffffffffffffff16815260200190815260200160002060008282546110209190612764565b92505081905550816002600083815260200190815260200160002060006101000a81548173ffffffffffffffffffffffffffffffffffffffff021916908373ffffffffffffffffffffffffffffffffffffffff160217905550808273ffffffffffffffffffffffffffffffffffffffff168473ffffffffffffffffffffffffffffffffffffffff167fddf252ad1be2c89b69c2b068fc378daa952ba7f163c4a11628f55a4df523b3ef60405160405180910390a46110df838383611753565b505050565b6110ec610d27565b73ffffffffffffffffffffffffffffffffffffffff1661110a6108d1565b73ffffffffffffffffffffffffffffffffffffffff1614611160576040517f08c379a000000000000000000000000000000000000000000000000000000000815260040161115790612806565b60405180910390fd5b565b6000600760009054906101000a900473ffffffffffffffffffffffffffffffffffffffff16905081600760006101000a81548173ffffffffffffffffffffffffffffffffffffffff021916908373ffffffffffffffffffffffffffffffffffffffff1602179055508173ffffffffffffffffffffffffffffffffffffffff168173ffffffffffffffffffffffffffffffffffffffff167f8be0079c531659141344cd1fd0a4f28419497f9722a3daafe3b4186f6b6457e060405160405180910390a35050565b8173ffffffffffffffffffffffffffffffffffffffff168373ffffffffffffffffffffffffffffffffffffffff161415611297576040517f08c379a000000000000000000000000000000000000000000000000000000000815260040161128e90612872565b60405180910390fd5b80600560008573ffffffffffffffffffffffffffffffffffffffff1673ffffffffffffffffffffffffffffffffffffffff16815260200190815260200160002060008473ffffffffffffffffffffffffffffffffffffffff1673ffffffffffffffffffffffffffffffffffffffff16815260200190815260200160002060006101000a81548160ff0219169083151502179055508173ffffffffffffffffffffffffffffffffffffffff168373ffffffffffffffffffffffffffffffffffffffff167f17307eab39ab6107e8899845ad3d59bd9653f200f220920489ca2b5937696c31836040516113889190611bca565b60405180910390a3505050565b6113a0848484610e7d565b6113ac84848484611758565b6113eb576040517f08c379a00000000000000000000000000000000000000000000000000000000081526004016113e290612904565b60405180910390fd5b50505050565b606060405180602001604052806000815250905090565b606061141382610cdc565b600061141d6113f1565b9050600081511161143d5760405180602001604052806000815250611468565b80611447846118ef565b604051602001611458929190612527565b6040516020818303038152906040525b915050919050565b6001816000016000828254019250508190555050565b600081600001549050919050565b600073ffffffffffffffffffffffffffffffffffffffff168273ffffffffffffffffffffffffffffffffffffffff161415611504576040517f08c379a00000000000000000000000000000000000000000000000000000000081526004016114fb90612970565b60405180910390fd5b61150d816116e2565b1561154d576040517f08c379a0000000000000000000000000000000000000000000000000000000008152600401611544906129dc565b60405180910390fd5b6115596000838361174e565b6001600360008473ffffffffffffffffffffffffffffffffffffffff1673ffffffffffffffffffffffffffffffffffffffff16815260200190815260200160002060008282546115a99190612764565b92505081905550816002600083815260200190815260200160002060006101000a81548173ffffffffffffffffffffffffffffffffffffffff021916908373ffffffffffffffffffffffffffffffffffffffff160217905550808273ffffffffffffffffffffffffffffffffffffffff16600073ffffffffffffffffffffffffffffffffffffffff167fddf252ad1be2c89b69c2b068fc378daa952ba7f163c4a11628f55a4df523b3ef60405160405180910390a461166a60008383611753565b5050565b611677826116e2565b6116b6576040517f08c379a00000000000000000000000000000000000000000000000000000000081526004016116ad90612a6e565b60405180910390fd5b806006600084815260200190815260200160002090805190602001906116dd929190611a73565b505050565b60008073ffffffffffffffffffffffffffffffffffffffff166002600084815260200190815260200160002060009054906101000a900473ffffffffffffffffffffffffffffffffffffffff1673ffffffffffffffffffffffffffffffffffffffff1614159050919050565b505050565b505050565b60006117798473ffffffffffffffffffffffffffffffffffffffff16611a50565b156118e2578373ffffffffffffffffffffffffffffffffffffffff1663150b7a026117a2610d27565b8786866040518563ffffffff1660e01b81526004016117c49493929190612ae3565b602060405180830381600087803b1580156117de57600080fd5b505af192505050801561180f57506040513d601f19601f8201168201806040525081019061180c9190612b44565b60015b611892573d806000811461183f576040519150601f19603f3d011682016040523d82523d6000602084013e611844565b606091505b5060008151141561188a576040517f08c379a000000000000000000000000000000000000000000000000000000000815260040161188190612904565b60405180910390fd5b805181602001fd5b63150b7a0260e01b7bffffffffffffffffffffffffffffffffffffffffffffffffffffffff1916817bffffffffffffffffffffffffffffffffffffffffffffffffffffffff1916149150506118e7565b600190505b949350505050565b60606000821415611937576040518060400160405280600181526020017f30000000000000000000000000000000000000000000000000000000000000008152509050611a4b565b600082905060005b6000821461196957808061195290612b71565b915050600a826119629190612be9565b915061193f565b60008167ffffffffffffffff81111561198557611984611eeb565b5b6040519080825280601f01601f1916602001820160405280156119b75781602001600182028036833780820191505090505b5090505b60008514611a44576001826119d09190612730565b9150600a856119df9190612c1a565b60306119eb9190612764565b60f81b818381518110611a0157611a00612c4b565b5b60200101907effffffffffffffffffffffffffffffffffffffffffffffffffffffffffffff1916908160001a905350600a85611a3d9190612be9565b94506119bb565b8093505050505b919050565b6000808273ffffffffffffffffffffffffffffffffffffffff163b119050919050565b828054611a7f90612205565b90600052602060002090601f016020900481019282611aa15760008555611ae8565b82601f10611aba57805160ff1916838001178555611ae8565b82800160010185558215611ae8579182015b82811115611ae7578251825591602001919060010190611acc565b5b509050611af59190611af9565b5090565b5b80821115611b12576000816000905550600101611afa565b5090565b6000604051905090565b600080fd5b600080fd5b60007fffffffff0000000000000000000000000000000000000000000000000000000082169050919050565b611b5f81611b2a565b8114611b6a57600080fd5b50565b600081359050611b7c81611b56565b92915050565b600060208284031215611b9857611b97611b20565b5b6000611ba684828501611b6d565b91505092915050565b60008115159050919050565b611bc481611baf565b82525050565b6000602082019050611bdf6000830184611bbb565b92915050565b600081519050919050565b600082825260208201905092915050565b60005b83811015611c1f578082015181840152602081019050611c04565b83811115611c2e576000848401525b50505050565b6000601f19601f8301169050919050565b6000611c5082611be5565b611c5a8185611bf0565b9350611c6a818560208601611c01565b611c7381611c34565b840191505092915050565b60006020820190508181036000830152611c988184611c45565b905092915050565b6000819050919050565b611cb381611ca0565b8114611cbe57600080fd5b50565b600081359050611cd081611caa565b92915050565b600060208284031215611cec57611ceb611b20565b5b6000611cfa84828501611cc1565b91505092915050565b600073ffffffffffffffffffffffffffffffffffffffff82169050919050565b6000611d2e82611d03565b9050919050565b611d3e81611d23565b82525050565b6000602082019050611d596000830184611d35565b92915050565b611d6881611d23565b8114611d7357600080fd5b50565b600081359050611d8581611d5f565b92915050565b60008060408385031215611da257611da1611b20565b5b6000611db085828601611d76565b9250506020611dc185828601611cc1565b9150509250929050565b600080600060608486031215611de457611de3611b20565b5b6000611df286828701611d76565b9350506020611e0386828701611d76565b9250506040611e1486828701611cc1565b9150509250925092565b600060208284031215611e3457611e33611b20565b5b6000611e4284828501611d76565b91505092915050565b611e5481611ca0565b82525050565b6000602082019050611e6f6000830184611e4b565b92915050565b611e7e81611baf565b8114611e8957600080fd5b50565b600081359050611e9b81611e75565b92915050565b60008060408385031215611eb857611eb7611b20565b5b6000611ec685828601611d76565b9250506020611ed785828601611e8c565b9150509250929050565b600080fd5b600080fd5b7f4e487b7100000000000000000000000000000000000000000000000000000000600052604160045260246000fd5b611f2382611c34565b810181811067ffffffffffffffff82111715611f4257611f41611eeb565b5b80604052505050565b6000611f55611b16565b9050611f618282611f1a565b919050565b600067ffffffffffffffff821115611f8157611f80611eeb565b5b611f8a82611c34565b9050602081019050919050565b82818337600083830152505050565b6000611fb9611fb484611f66565b611f4b565b905082815260208101848484011115611fd557611fd4611ee6565b5b611fe0848285611f97565b509392505050565b600082601f830112611ffd57611ffc611ee1565b5b813561200d848260208601611fa6565b91505092915050565b600080600080608085870312156120305761202f611b20565b5b600061203e87828801611d76565b945050602061204f87828801611d76565b935050604061206087828801611cc1565b925050606085013567ffffffffffffffff81111561208157612080611b25565b5b61208d87828801611fe8565b91505092959194509250565b600080604083850312156120b0576120af611b20565b5b60006120be85828601611d76565b92505060206120cf85828601611d76565b9150509250929050565b600067ffffffffffffffff8211156120f4576120f3611eeb565b5b6120fd82611c34565b9050602081019050919050565b600061211d612118846120d9565b611f4b565b90508281526020810184848401111561213957612138611ee6565b5b612144848285611f97565b509392505050565b600082601f83011261216157612160611ee1565b5b813561217184826020860161210a565b91505092915050565b6000806040838503121561219157612190611b20565b5b600061219f85828601611d76565b925050602083013567ffffffffffffffff8111156121c0576121bf611b25565b5b6121cc8582860161214c565b9150509250929050565b7f4e487b7100000000000000000000000000000000000000000000000000000000600052602260045260246000fd5b6000600282049050600182168061221d57607f821691505b60208210811415612231576122306121d6565b5b50919050565b7f4552433732313a20617070726f76616c20746f2063757272656e74206f776e6560008201527f7200000000000000000000000000000000000000000000000000000000000000602082015250565b6000612293602183611bf0565b915061229e82612237565b604082019050919050565b600060208201905081810360008301526122c281612286565b9050919050565b7f4552433732313a20617070726f76652063616c6c6572206973206e6f7420746f60008201527f6b656e206f776e6572206e6f7220617070726f76656420666f7220616c6c0000602082015250565b6000612325603e83611bf0565b9150612330826122c9565b604082019050919050565b6000602082019050818103600083015261235481612318565b9050919050565b7f4552433732313a2063616c6c6572206973206e6f7420746f6b656e206f776e6560008201527f72206e6f7220617070726f766564000000000000000000000000000000000000602082015250565b60006123b7602e83611bf0565b91506123c28261235b565b604082019050919050565b600060208201905081810360008301526123e6816123aa565b9050919050565b7f4552433732313a20696e76616c696420746f6b656e2049440000000000000000600082015250565b6000612423601883611bf0565b915061242e826123ed565b602082019050919050565b6000602082019050818103600083015261245281612416565b9050919050565b7f4552433732313a2061646472657373207a65726f206973206e6f74206120766160008201527f6c6964206f776e65720000000000000000000000000000000000000000000000602082015250565b60006124b5602983611bf0565b91506124c082612459565b604082019050919050565b600060208201905081810360008301526124e4816124a8565b9050919050565b600081905092915050565b600061250182611be5565b61250b81856124eb565b935061251b818560208601611c01565b80840191505092915050565b600061253382856124f6565b915061253f82846124f6565b91508190509392505050565b7f4f776e61626c653a206e6577206f776e657220697320746865207a65726f206160008201527f6464726573730000000000000000000000000000000000000000000000000000602082015250565b60006125a7602683611bf0565b91506125b28261254b565b604082019050919050565b600060208201905081810360008301526125d68161259a565b9050919050565b7f4552433732313a207472616e736665722066726f6d20696e636f72726563742060008201527f6f776e6572000000000000000000000000000000000000000000000000000000602082015250565b6000612639602583611bf0565b9150612644826125dd565b604082019050919050565b600060208201905081810360008301526126688161262c565b9050919050565b7f4552433732313a207472616e7366657220746f20746865207a65726f2061646460008201527f7265737300000000000000000000000000000000000000000000000000000000602082015250565b60006126cb602483611bf0565b91506126d68261266f565b604082019050919050565b600060208201905081810360008301526126fa816126be565b9050919050565b7f4e487b7100000000000000000000000000000000000000000000000000000000600052601160045260246000fd5b600061273b82611ca0565b915061274683611ca0565b92508282101561275957612758612701565b5b828203905092915050565b600061276f82611ca0565b915061277a83611ca0565b9250827fffffffffffffffffffffffffffffffffffffffffffffffffffffffffffffffff038211156127af576127ae612701565b5b828201905092915050565b7f4f776e61626c653a2063616c6c6572206973206e6f7420746865206f776e6572600082015250565b60006127f0602083611bf0565b91506127fb826127ba565b602082019050919050565b6000602082019050818103600083015261281f816127e3565b9050919050565b7f4552433732313a20617070726f766520746f2063616c6c657200000000000000600082015250565b600061285c601983611bf0565b915061286782612826565b602082019050919050565b6000602082019050818103600083015261288b8161284f565b9050919050565b7f4552433732313a207472616e7366657220746f206e6f6e20455243373231526560008201527f63656976657220696d706c656d656e7465720000000000000000000000000000602082015250565b60006128ee603283611bf0565b91506128f982612892565b604082019050919050565b6000602082019050818103600083015261291d816128e1565b9050919050565b7f4552433732313a206d696e7420746f20746865207a65726f2061646472657373600082015250565b600061295a602083611bf0565b915061296582612924565b602082019050919050565b600060208201905081810360008301526129898161294d565b9050919050565b7f4552433732313a20746f6b656e20616c7265616479206d696e74656400000000600082015250565b60006129c6601c83611bf0565b91506129d182612990565b602082019050919050565b600060208201905081810360008301526129f5816129b9565b9050919050565b7f45524337323155524953746f726167653a2055524920736574206f66206e6f6e60008201527f6578697374656e7420746f6b656e000000000000000000000000000000000000602082015250565b6000612a58602e83611bf0565b9150612a63826129fc565b604082019050919050565b60006020820190508181036000830152612a8781612a4b565b9050919050565b600081519050919050565b600082825260208201905092915050565b6000612ab582612a8e565b612abf8185612a99565b9350612acf818560208601611c01565b612ad881611c34565b840191505092915050565b6000608082019050612af86000830187611d35565b612b056020830186611d35565b612b126040830185611e4b565b8181036060830152612b248184612aaa565b905095945050505050565b600081519050612b3e81611b56565b92915050565b600060208284031215612b5a57612b59611b20565b5b6000612b6884828501612b2f565b91505092915050565b6000612b7c82611ca0565b91507fffffffffffffffffffffffffffffffffffffffffffffffffffffffffffffffff821415612baf57612bae612701565b5b600182019050919050565b7f4e487b7100000000000000000000000000000000000000000000000000000000600052601260045260246000fd5b6000612bf482611ca0565b9150612bff83611ca0565b925082612c0f57612c0e612bba565b5b828204905092915050565b6000612c2582611ca0565b9150612c3083611ca0565b925082612c4057612c3f612bba565b5b828206905092915050565b7f4e487b7100000000000000000000000000000000000000000000000000000000600052603260045260246000fdfea264697066735822122033860665a6d6771577462175f089e7b72856ece6bbb938675b8d0868a7311bd664736f6c63430008090033",
  "linkReferences": {},
  "deployedLinkReferences": {}
}