{
  "_format": "hh-sol-artifact-1",
  "contractName": "Adopt",
  "sourceName": "contracts/Adopt.sol",
  "abi": [
    {
      "inputs": [
        {
          "internalType": "string",
          "name": "_name",
          "type": "string"
        },
        {
          "internalType": "string",
          "name": "_symbol",
          "type": "string"
        }
      ],
      "stateMutability": "nonpayable",
      "type": "constructor"
    },
    {
      "anonymous": false,
      "inputs": [
        {
          "indexed": true,
          "internalType": "address",
          "name": "owner",
          "type": "address"
        },
        {
          "indexed": true,
          "internalType": "address",
          "name": "approved",
          "type": "address"
        },
        {
          "indexed": true,
          "internalType": "uint256",
          "name": "tokenId",
          "type": "uint256"
        }
      ],
      "name": "Approval",
      "type": "event"
    },
    {
      "anonymous": false,
      "inputs": [
        {
          "indexed": true,
          "internalType": "address",
          "name": "owner",
          "type": "address"
        },
        {
          "indexed": true,
          "internalType": "address",
          "name": "operator",
          "type": "address"
        },
        {
          "indexed": false,
          "internalType": "bool",
          "name": "approved",
          "type": "bool"
        }
      ],
      "name": "ApprovalForAll",
      "type": "event"
    },
    {
      "anonymous": false,
      "inputs": [
        {
          "indexed": true,
          "internalType": "address",
          "name": "previousOwner",
          "type": "address"
        },
        {
          "indexed": true,
          "internalType": "address",
          "name": "newOwner",
          "type": "address"
        }
      ],
      "name": "OwnershipTransferred",
      "type": "event"
    },
    {
      "anonymous": false,
      "inputs": [
        {
          "indexed": true,
          "internalType": "address",
          "name": "from",
          "type": "address"
        },
        {
          "indexed": true,
          "internalType": "address",
          "name": "to",
          "type": "address"
        },
        {
          "indexed": true,
          "internalType": "uint256",
          "name": "tokenId",
          "type": "uint256"
        }
      ],
      "name": "Transfer",
      "type": "event"
    },
    {
      "inputs": [
        {
          "internalType": "address",
          "name": "to",
          "type": "address"
        },
        {
          "internalType": "uint256",
          "name": "tokenId",
          "type": "uint256"
        }
      ],
      "name": "approve",
      "outputs": [],
      "stateMutability": "nonpayable",
      "type": "function"
    },
    {
      "inputs": [
        {
          "internalType": "address",
          "name": "owner",
          "type": "address"
        }
      ],
      "name": "balanceOf",
      "outputs": [
        {
          "internalType": "uint256",
          "name": "",
          "type": "uint256"
        }
      ],
      "stateMutability": "view",
      "type": "function"
    },
    {
      "inputs": [
        {
          "internalType": "uint256",
          "name": "tokenId",
          "type": "uint256"
        }
      ],
      "name": "getApproved",
      "outputs": [
        {
          "internalType": "address",
          "name": "",
          "type": "address"
        }
      ],
      "stateMutability": "view",
      "type": "function"
    },
    {
      "inputs": [],
      "name": "getCost",
      "outputs": [
        {
          "internalType": "uint256",
          "name": "",
          "type": "uint256"
        }
      ],
      "stateMutability": "view",
      "type": "function"
    },
    {
      "inputs": [],
      "name": "getNFTCost",
      "outputs": [
        {
          "internalType": "uint256",
          "name": "",
          "type": "uint256"
        }
      ],
      "stateMutability": "view",
      "type": "function"
    },
    {
      "inputs": [
        {
          "internalType": "address",
          "name": "owner",
          "type": "address"
        },
        {
          "internalType": "address",
          "name": "operator",
          "type": "address"
        }
      ],
      "name": "isApprovedForAll",
      "outputs": [
        {
          "internalType": "bool",
          "name": "",
          "type": "bool"
        }
      ],
      "stateMutability": "view",
      "type": "function"
    },
    {
      "inputs": [
        {
          "internalType": "address",
          "name": "recipient",
          "type": "address"
        },
        {
          "internalType": "string",
          "name": "tokenURI",
          "type": "string"
        }
      ],
      "name": "mintNFT",
      "outputs": [
        {
          "internalType": "uint256",
          "name": "",
          "type": "uint256"
        }
      ],
      "stateMutability": "payable",
      "type": "function"
    },
    {
      "inputs": [],
      "name": "name",
      "outputs": [
        {
          "internalType": "string",
          "name": "",
          "type": "string"
        }
      ],
      "stateMutability": "view",
      "type": "function"
    },
    {
      "inputs": [],
      "name": "owner",
      "outputs": [
        {
          "internalType": "address",
          "name": "",
          "type": "address"
        }
      ],
      "stateMutability": "view",
      "type": "function"
    },
    {
      "inputs": [
        {
          "internalType": "uint256",
          "name": "tokenId",
          "type": "uint256"
        }
      ],
      "name": "ownerOf",
      "outputs": [
        {
          "internalType": "address",
          "name": "",
          "type": "address"
        }
      ],
      "stateMutability": "view",
      "type": "function"
    },
    {
      "inputs": [],
      "name": "renounceOwnership",
      "outputs": [],
      "stateMutability": "nonpayable",
      "type": "function"
    },
    {
      "inputs": [
        {
          "internalType": "address",
          "name": "from",
          "type": "address"
        },
        {
          "internalType": "address",
          "name": "to",
          "type": "address"
        },
        {
          "internalType": "uint256",
          "name": "tokenId",
          "type": "uint256"
        }
      ],
      "name": "safeTransferFrom",
      "outputs": [],
      "stateMutability": "nonpayable",
      "type": "function"
    },
    {
      "inputs": [
        {
          "internalType": "address",
          "name": "from",
          "type": "address"
        },
        {
          "internalType": "address",
          "name": "to",
          "type": "address"
        },
        {
          "internalType": "uint256",
          "name": "tokenId",
          "type": "uint256"
        },
        {
          "internalType": "bytes",
          "name": "data",
          "type": "bytes"
        }
      ],
      "name": "safeTransferFrom",
      "outputs": [],
      "stateMutability": "nonpayable",
      "type": "function"
    },
    {
      "inputs": [
        {
          "internalType": "address",
          "name": "operator",
          "type": "address"
        },
        {
          "internalType": "bool",
          "name": "approved",
          "type": "bool"
        }
      ],
      "name": "setApprovalForAll",
      "outputs": [],
      "stateMutability": "nonpayable",
      "type": "function"
    },
    {
      "inputs": [
        {
          "internalType": "bytes4",
          "name": "interfaceId",
          "type": "bytes4"
        }
      ],
      "name": "supportsInterface",
      "outputs": [
        {
          "internalType": "bool",
          "name": "",
          "type": "bool"
        }
      ],
      "stateMutability": "view",
      "type": "function"
    },
    {
      "inputs": [],
      "name": "symbol",
      "outputs": [
        {
          "internalType": "string",
          "name": "",
          "type": "string"
        }
      ],
      "stateMutability": "view",
      "type": "function"
    },
    {
      "inputs": [
        {
          "internalType": "uint256",
          "name": "tokenId",
          "type": "uint256"
        }
      ],
      "name": "tokenURI",
      "outputs": [
        {
          "internalType": "string",
          "name": "",
          "type": "string"
        }
      ],
      "stateMutability": "view",
      "type": "function"
    },
    {
      "inputs": [
        {
          "internalType": "address",
          "name": "from",
          "type": "address"
        },
        {
          "internalType": "address",
          "name": "to",
          "type": "address"
        },
        {
          "internalType": "uint256",
          "name": "tokenId",
          "type": "uint256"
        }
      ],
      "name": "transferFrom",
      "outputs": [],
      "stateMutability": "nonpayable",
      "type": "function"
    },
    {
      "inputs": [
        {
          "internalType": "address",
          "name": "newOwner",
          "type": "address"
        }
      ],
      "name": "transferOwnership",
      "outputs": [],
      "stateMutability": "nonpayable",
      "type": "function"
    },
    {
      "inputs": [
        {
          "internalType": "uint256",
          "name": "cost",
          "type": "uint256"
        }
      ],
      "name": "updateCost",
      "outputs": [],
      "stateMutability": "nonpayable",
      "type": "function"
    }
  ],
  "bytecode": "0x6080604052662386f26fc10000600855730d5cc855b24e3d7f4430bbfd52b04c9d594ace31600960006101000a81548173ffffffffffffffffffffffffffffffffffffffff021916908373ffffffffffffffffffffffffffffffffffffffff1602179055503480156200007157600080fd5b506040516200335438038062003354833981810160405281019062000097919062000410565b81818160009080519060200190620000b1929190620001c3565b508060019080519060200190620000ca929190620001c3565b505050620000ed620000e1620000f560201b60201c565b620000fd60201b60201c565b5050620004fa565b600033905090565b6000600760009054906101000a900473ffffffffffffffffffffffffffffffffffffffff16905081600760006101000a81548173ffffffffffffffffffffffffffffffffffffffff021916908373ffffffffffffffffffffffffffffffffffffffff1602179055508173ffffffffffffffffffffffffffffffffffffffff168173ffffffffffffffffffffffffffffffffffffffff167f8be0079c531659141344cd1fd0a4f28419497f9722a3daafe3b4186f6b6457e060405160405180910390a35050565b828054620001d190620004c4565b90600052602060002090601f016020900481019282620001f5576000855562000241565b82601f106200021057805160ff191683800117855562000241565b8280016001018555821562000241579182015b828111156200024057825182559160200191906001019062000223565b5b50905062000250919062000254565b5090565b5b808211156200026f57600081600090555060010162000255565b5090565b6000604051905090565b600080fd5b600080fd5b600080fd5b600080fd5b6000601f19601f8301169050919050565b7f4e487b7100000000000000000000000000000000000000000000000000000000600052604160045260246000fd5b620002dc8262000291565b810181811067ffffffffffffffff82111715620002fe57620002fd620002a2565b5b80604052505050565b60006200031362000273565b9050620003218282620002d1565b919050565b600067ffffffffffffffff821115620003445762000343620002a2565b5b6200034f8262000291565b9050602081019050919050565b60005b838110156200037c5780820151818401526020810190506200035f565b838111156200038c576000848401525b50505050565b6000620003a9620003a38462000326565b62000307565b905082815260208101848484011115620003c857620003c76200028c565b5b620003d58482856200035c565b509392505050565b600082601f830112620003f557620003f462000287565b5b81516200040784826020860162000392565b91505092915050565b600080604083850312156200042a57620004296200027d565b5b600083015167ffffffffffffffff8111156200044b576200044a62000282565b5b6200045985828601620003dd565b925050602083015167ffffffffffffffff8111156200047d576200047c62000282565b5b6200048b85828601620003dd565b9150509250929050565b7f4e487b7100000000000000000000000000000000000000000000000000000000600052602260045260246000fd5b60006002820490506001821680620004dd57607f821691505b60208210811415620004f457620004f362000495565b5b50919050565b612e4a806200050a6000396000f3fe60806040526004361061011f5760003560e01c806379c501a4116100a0578063bd3e19d411610064578063bd3e19d4146103d1578063c87b56dd146103fc578063e985e9c514610439578063eacabe1414610476578063f2fde38b146104a65761011f565b806379c501a4146102fe5780638da5cb5b1461032957806395d89b4114610354578063a22cb4651461037f578063b88d4fde146103a85761011f565b806323c5a088116100e757806323c5a0881461021b57806342842e0e146102445780636352211e1461026d57806370a08231146102aa578063715018a6146102e75761011f565b806301ffc9a71461012457806306fdde0314610161578063081812fc1461018c578063095ea7b3146101c957806323b872dd146101f2575b600080fd5b34801561013057600080fd5b5061014b60048036038101906101469190611cb0565b6104cf565b6040516101589190611cf8565b60405180910390f35b34801561016d57600080fd5b506101766105b1565b6040516101839190611dac565b60405180910390f35b34801561019857600080fd5b506101b360048036038101906101ae9190611e04565b610643565b6040516101c09190611e72565b60405180910390f35b3480156101d557600080fd5b506101f060048036038101906101eb9190611eb9565b610689565b005b3480156101fe57600080fd5b5061021960048036038101906102149190611ef9565b6107a1565b005b34801561022757600080fd5b50610242600480360381019061023d9190611e04565b610801565b005b34801561025057600080fd5b5061026b60048036038101906102669190611ef9565b610813565b005b34801561027957600080fd5b50610294600480360381019061028f9190611e04565b610833565b6040516102a19190611e72565b60405180910390f35b3480156102b657600080fd5b506102d160048036038101906102cc9190611f4c565b6108e5565b6040516102de9190611f88565b60405180910390f35b3480156102f357600080fd5b506102fc61099d565b005b34801561030a57600080fd5b506103136109b1565b6040516103209190611f88565b60405180910390f35b34801561033557600080fd5b5061033e6109bb565b60405161034b9190611e72565b60405180910390f35b34801561036057600080fd5b506103696109e5565b6040516103769190611dac565b60405180910390f35b34801561038b57600080fd5b506103a660048036038101906103a19190611fcf565b610a77565b005b3480156103b457600080fd5b506103cf60048036038101906103ca9190612144565b610a8d565b005b3480156103dd57600080fd5b506103e6610aef565b6040516103f39190611f88565b60405180910390f35b34801561040857600080fd5b50610423600480360381019061041e9190611e04565b610af9565b6040516104309190611dac565b60405180910390f35b34801561044557600080fd5b50610460600480360381019061045b91906121c7565b610c0c565b60405161046d9190611cf8565b60405180910390f35b610490600480360381019061048b91906122a8565b610ca0565b60405161049d9190611f88565b60405180910390f35b3480156104b257600080fd5b506104cd60048036038101906104c89190611f4c565b610d1c565b005b60007f80ac58cd000000000000000000000000000000000000000000000000000000007bffffffffffffffffffffffffffffffffffffffffffffffffffffffff1916827bffffffffffffffffffffffffffffffffffffffffffffffffffffffff1916148061059a57507f5b5e139f000000000000000000000000000000000000000000000000000000007bffffffffffffffffffffffffffffffffffffffffffffffffffffffff1916827bffffffffffffffffffffffffffffffffffffffffffffffffffffffff1916145b806105aa57506105a982610da0565b5b9050919050565b6060600080546105c090612333565b80601f01602080910402602001604051908101604052809291908181526020018280546105ec90612333565b80156106395780601f1061060e57610100808354040283529160200191610639565b820191906000526020600020905b81548152906001019060200180831161061c57829003601f168201915b5050505050905090565b600061064e82610e0a565b6004600083815260200190815260200160002060009054906101000a900473ffffffffffffffffffffffffffffffffffffffff169050919050565b600061069482610833565b90508073ffffffffffffffffffffffffffffffffffffffff168373ffffffffffffffffffffffffffffffffffffffff161415610705576040517f08c379a00000000000000000000000000000000000000000000000000000000081526004016106fc906123d7565b60405180910390fd5b8073ffffffffffffffffffffffffffffffffffffffff16610724610e55565b73ffffffffffffffffffffffffffffffffffffffff16148061075357506107528161074d610e55565b610c0c565b5b610792576040517f08c379a000000000000000000000000000000000000000000000000000000000815260040161078990612469565b60405180910390fd5b61079c8383610e5d565b505050565b6107b26107ac610e55565b82610f16565b6107f1576040517f08c379a00000000000000000000000000000000000000000000000000000000081526004016107e8906124fb565b60405180910390fd5b6107fc838383610fab565b505050565b610809611212565b8060088190555050565b61082e83838360405180602001604052806000815250610a8d565b505050565b6000806002600084815260200190815260200160002060009054906101000a900473ffffffffffffffffffffffffffffffffffffffff169050600073ffffffffffffffffffffffffffffffffffffffff168173ffffffffffffffffffffffffffffffffffffffff1614156108dc576040517f08c379a00000000000000000000000000000000000000000000000000000000081526004016108d390612567565b60405180910390fd5b80915050919050565b60008073ffffffffffffffffffffffffffffffffffffffff168273ffffffffffffffffffffffffffffffffffffffff161415610956576040517f08c379a000000000000000000000000000000000000000000000000000000000815260040161094d906125f9565b60405180910390fd5b600360008373ffffffffffffffffffffffffffffffffffffffff1673ffffffffffffffffffffffffffffffffffffffff168152602001908152602001600020549050919050565b6109a5611212565b6109af6000611290565b565b6000600854905090565b6000600760009054906101000a900473ffffffffffffffffffffffffffffffffffffffff16905090565b6060600180546109f490612333565b80601f0160208091040260200160405190810160405280929190818152602001828054610a2090612333565b8015610a6d5780601f10610a4257610100808354040283529160200191610a6d565b820191906000526020600020905b815481529060010190602001808311610a5057829003601f168201915b5050505050905090565b610a89610a82610e55565b8383611356565b5050565b610a9e610a98610e55565b83610f16565b610add576040517f08c379a0000000000000000000000000000000000000000000000000000000008152600401610ad4906124fb565b60405180910390fd5b610ae9848484846114c3565b50505050565b6000600854905090565b6060610b0482610e0a565b6000600660008481526020019081526020016000208054610b2490612333565b80601f0160208091040260200160405190810160405280929190818152602001828054610b5090612333565b8015610b9d5780601f10610b7257610100808354040283529160200191610b9d565b820191906000526020600020905b815481529060010190602001808311610b8057829003601f168201915b505050505090506000610bae61151f565b9050600081511415610bc4578192505050610c07565b600082511115610bf9578082604051602001610be1929190612655565b60405160208183030381529060405292505050610c07565b610c0284611536565b925050505b919050565b6000600560008473ffffffffffffffffffffffffffffffffffffffff1673ffffffffffffffffffffffffffffffffffffffff16815260200190815260200160002060008373ffffffffffffffffffffffffffffffffffffffff1673ffffffffffffffffffffffffffffffffffffffff16815260200190815260200160002060009054906101000a900460ff16905092915050565b60006008543414610ce6576040517f08c379a0000000000000000000000000000000000000000000000000000000008152600401610cdd906126c5565b60405180910390fd5b610cf0600a61159e565b6000610cfc600a6115b4565b9050610d0884826115c2565b610d12818461179c565b8091505092915050565b610d24611212565b600073ffffffffffffffffffffffffffffffffffffffff168173ffffffffffffffffffffffffffffffffffffffff161415610d94576040517f08c379a0000000000000000000000000000000000000000000000000000000008152600401610d8b90612757565b60405180910390fd5b610d9d81611290565b50565b60007f01ffc9a7000000000000000000000000000000000000000000000000000000007bffffffffffffffffffffffffffffffffffffffffffffffffffffffff1916827bffffffffffffffffffffffffffffffffffffffffffffffffffffffff1916149050919050565b610e1381611810565b610e52576040517f08c379a0000000000000000000000000000000000000000000000000000000008152600401610e4990612567565b60405180910390fd5b50565b600033905090565b816004600083815260200190815260200160002060006101000a81548173ffffffffffffffffffffffffffffffffffffffff021916908373ffffffffffffffffffffffffffffffffffffffff160217905550808273ffffffffffffffffffffffffffffffffffffffff16610ed083610833565b73ffffffffffffffffffffffffffffffffffffffff167f8c5be1e5ebec7d5bd14f71427d1e84f3dd0314c0f7b2291e5b200ac8c7c3b92560405160405180910390a45050565b600080610f2283610833565b90508073ffffffffffffffffffffffffffffffffffffffff168473ffffffffffffffffffffffffffffffffffffffff161480610f645750610f638185610c0c565b5b80610fa257508373ffffffffffffffffffffffffffffffffffffffff16610f8a84610643565b73ffffffffffffffffffffffffffffffffffffffff16145b91505092915050565b8273ffffffffffffffffffffffffffffffffffffffff16610fcb82610833565b73ffffffffffffffffffffffffffffffffffffffff1614611021576040517f08c379a0000000000000000000000000000000000000000000000000000000008152600401611018906127e9565b60405180910390fd5b600073ffffffffffffffffffffffffffffffffffffffff168273ffffffffffffffffffffffffffffffffffffffff161415611091576040517f08c379a00000000000000000000000000000000000000000000000000000000081526004016110889061287b565b60405180910390fd5b61109c83838361187c565b6110a7600082610e5d565b6001600360008573ffffffffffffffffffffffffffffffffffffffff1673ffffffffffffffffffffffffffffffffffffffff16815260200190815260200160002060008282546110f791906128ca565b925050819055506001600360008473ffffffffffffffffffffffffffffffffffffffff1673ffffffffffffffffffffffffffffffffffffffff168152602001908152602001600020600082825461114e91906128fe565b92505081905550816002600083815260200190815260200160002060006101000a81548173ffffffffffffffffffffffffffffffffffffffff021916908373ffffffffffffffffffffffffffffffffffffffff160217905550808273ffffffffffffffffffffffffffffffffffffffff168473ffffffffffffffffffffffffffffffffffffffff167fddf252ad1be2c89b69c2b068fc378daa952ba7f163c4a11628f55a4df523b3ef60405160405180910390a461120d838383611881565b505050565b61121a610e55565b73ffffffffffffffffffffffffffffffffffffffff166112386109bb565b73ffffffffffffffffffffffffffffffffffffffff161461128e576040517f08c379a0000000000000000000000000000000000000000000000000000000008152600401611285906129a0565b60405180910390fd5b565b6000600760009054906101000a900473ffffffffffffffffffffffffffffffffffffffff16905081600760006101000a81548173ffffffffffffffffffffffffffffffffffffffff021916908373ffffffffffffffffffffffffffffffffffffffff1602179055508173ffffffffffffffffffffffffffffffffffffffff168173ffffffffffffffffffffffffffffffffffffffff167f8be0079c531659141344cd1fd0a4f28419497f9722a3daafe3b4186f6b6457e060405160405180910390a35050565b8173ffffffffffffffffffffffffffffffffffffffff168373ffffffffffffffffffffffffffffffffffffffff1614156113c5576040517f08c379a00000000000000000000000000000000000000000000000000000000081526004016113bc90612a0c565b60405180910390fd5b80600560008573ffffffffffffffffffffffffffffffffffffffff1673ffffffffffffffffffffffffffffffffffffffff16815260200190815260200160002060008473ffffffffffffffffffffffffffffffffffffffff1673ffffffffffffffffffffffffffffffffffffffff16815260200190815260200160002060006101000a81548160ff0219169083151502179055508173ffffffffffffffffffffffffffffffffffffffff168373ffffffffffffffffffffffffffffffffffffffff167f17307eab39ab6107e8899845ad3d59bd9653f200f220920489ca2b5937696c31836040516114b69190611cf8565b60405180910390a3505050565b6114ce848484610fab565b6114da84848484611886565b611519576040517f08c379a000000000000000000000000000000000000000000000000000000000815260040161151090612a9e565b60405180910390fd5b50505050565b606060405180602001604052806000815250905090565b606061154182610e0a565b600061154b61151f565b9050600081511161156b5760405180602001604052806000815250611596565b8061157584611a1d565b604051602001611586929190612655565b6040516020818303038152906040525b915050919050565b6001816000016000828254019250508190555050565b600081600001549050919050565b600073ffffffffffffffffffffffffffffffffffffffff168273ffffffffffffffffffffffffffffffffffffffff161415611632576040517f08c379a000000000000000000000000000000000000000000000000000000000815260040161162990612b0a565b60405180910390fd5b61163b81611810565b1561167b576040517f08c379a000000000000000000000000000000000000000000000000000000000815260040161167290612b76565b60405180910390fd5b6116876000838361187c565b6001600360008473ffffffffffffffffffffffffffffffffffffffff1673ffffffffffffffffffffffffffffffffffffffff16815260200190815260200160002060008282546116d791906128fe565b92505081905550816002600083815260200190815260200160002060006101000a81548173ffffffffffffffffffffffffffffffffffffffff021916908373ffffffffffffffffffffffffffffffffffffffff160217905550808273ffffffffffffffffffffffffffffffffffffffff16600073ffffffffffffffffffffffffffffffffffffffff167fddf252ad1be2c89b69c2b068fc378daa952ba7f163c4a11628f55a4df523b3ef60405160405180910390a461179860008383611881565b5050565b6117a582611810565b6117e4576040517f08c379a00000000000000000000000000000000000000000000000000000000081526004016117db90612c08565b60405180910390fd5b8060066000848152602001908152602001600020908051906020019061180b929190611ba1565b505050565b60008073ffffffffffffffffffffffffffffffffffffffff166002600084815260200190815260200160002060009054906101000a900473ffffffffffffffffffffffffffffffffffffffff1673ffffffffffffffffffffffffffffffffffffffff1614159050919050565b505050565b505050565b60006118a78473ffffffffffffffffffffffffffffffffffffffff16611b7e565b15611a10578373ffffffffffffffffffffffffffffffffffffffff1663150b7a026118d0610e55565b8786866040518563ffffffff1660e01b81526004016118f29493929190612c7d565b602060405180830381600087803b15801561190c57600080fd5b505af192505050801561193d57506040513d601f19601f8201168201806040525081019061193a9190612cde565b60015b6119c0573d806000811461196d576040519150601f19603f3d011682016040523d82523d6000602084013e611972565b606091505b506000815114156119b8576040517f08c379a00000000000000000000000000000000000000000000000000000000081526004016119af90612a9e565b60405180910390fd5b805181602001fd5b63150b7a0260e01b7bffffffffffffffffffffffffffffffffffffffffffffffffffffffff1916817bffffffffffffffffffffffffffffffffffffffffffffffffffffffff191614915050611a15565b600190505b949350505050565b60606000821415611a65576040518060400160405280600181526020017f30000000000000000000000000000000000000000000000000000000000000008152509050611b79565b600082905060005b60008214611a97578080611a8090612d0b565b915050600a82611a909190612d83565b9150611a6d565b60008167ffffffffffffffff811115611ab357611ab2612019565b5b6040519080825280601f01601f191660200182016040528015611ae55781602001600182028036833780820191505090505b5090505b60008514611b7257600182611afe91906128ca565b9150600a85611b0d9190612db4565b6030611b1991906128fe565b60f81b818381518110611b2f57611b2e612de5565b5b60200101907effffffffffffffffffffffffffffffffffffffffffffffffffffffffffffff1916908160001a905350600a85611b6b9190612d83565b9450611ae9565b8093505050505b919050565b6000808273ffffffffffffffffffffffffffffffffffffffff163b119050919050565b828054611bad90612333565b90600052602060002090601f016020900481019282611bcf5760008555611c16565b82601f10611be857805160ff1916838001178555611c16565b82800160010185558215611c16579182015b82811115611c15578251825591602001919060010190611bfa565b5b509050611c239190611c27565b5090565b5b80821115611c40576000816000905550600101611c28565b5090565b6000604051905090565b600080fd5b600080fd5b60007fffffffff0000000000000000000000000000000000000000000000000000000082169050919050565b611c8d81611c58565b8114611c9857600080fd5b50565b600081359050611caa81611c84565b92915050565b600060208284031215611cc657611cc5611c4e565b5b6000611cd484828501611c9b565b91505092915050565b60008115159050919050565b611cf281611cdd565b82525050565b6000602082019050611d0d6000830184611ce9565b92915050565b600081519050919050565b600082825260208201905092915050565b60005b83811015611d4d578082015181840152602081019050611d32565b83811115611d5c576000848401525b50505050565b6000601f19601f8301169050919050565b6000611d7e82611d13565b611d888185611d1e565b9350611d98818560208601611d2f565b611da181611d62565b840191505092915050565b60006020820190508181036000830152611dc68184611d73565b905092915050565b6000819050919050565b611de181611dce565b8114611dec57600080fd5b50565b600081359050611dfe81611dd8565b92915050565b600060208284031215611e1a57611e19611c4e565b5b6000611e2884828501611def565b91505092915050565b600073ffffffffffffffffffffffffffffffffffffffff82169050919050565b6000611e5c82611e31565b9050919050565b611e6c81611e51565b82525050565b6000602082019050611e876000830184611e63565b92915050565b611e9681611e51565b8114611ea157600080fd5b50565b600081359050611eb381611e8d565b92915050565b60008060408385031215611ed057611ecf611c4e565b5b6000611ede85828601611ea4565b9250506020611eef85828601611def565b9150509250929050565b600080600060608486031215611f1257611f11611c4e565b5b6000611f2086828701611ea4565b9350506020611f3186828701611ea4565b9250506040611f4286828701611def565b9150509250925092565b600060208284031215611f6257611f61611c4e565b5b6000611f7084828501611ea4565b91505092915050565b611f8281611dce565b82525050565b6000602082019050611f9d6000830184611f79565b92915050565b611fac81611cdd565b8114611fb757600080fd5b50565b600081359050611fc981611fa3565b92915050565b60008060408385031215611fe657611fe5611c4e565b5b6000611ff485828601611ea4565b925050602061200585828601611fba565b9150509250929050565b600080fd5b600080fd5b7f4e487b7100000000000000000000000000000000000000000000000000000000600052604160045260246000fd5b61205182611d62565b810181811067ffffffffffffffff821117156120705761206f612019565b5b80604052505050565b6000612083611c44565b905061208f8282612048565b919050565b600067ffffffffffffffff8211156120af576120ae612019565b5b6120b882611d62565b9050602081019050919050565b82818337600083830152505050565b60006120e76120e284612094565b612079565b90508281526020810184848401111561210357612102612014565b5b61210e8482856120c5565b509392505050565b600082601f83011261212b5761212a61200f565b5b813561213b8482602086016120d4565b91505092915050565b6000806000806080858703121561215e5761215d611c4e565b5b600061216c87828801611ea4565b945050602061217d87828801611ea4565b935050604061218e87828801611def565b925050606085013567ffffffffffffffff8111156121af576121ae611c53565b5b6121bb87828801612116565b91505092959194509250565b600080604083850312156121de576121dd611c4e565b5b60006121ec85828601611ea4565b92505060206121fd85828601611ea4565b9150509250929050565b600067ffffffffffffffff82111561222257612221612019565b5b61222b82611d62565b9050602081019050919050565b600061224b61224684612207565b612079565b90508281526020810184848401111561226757612266612014565b5b6122728482856120c5565b509392505050565b600082601f83011261228f5761228e61200f565b5b813561229f848260208601612238565b91505092915050565b600080604083850312156122bf576122be611c4e565b5b60006122cd85828601611ea4565b925050602083013567ffffffffffffffff8111156122ee576122ed611c53565b5b6122fa8582860161227a565b9150509250929050565b7f4e487b7100000000000000000000000000000000000000000000000000000000600052602260045260246000fd5b6000600282049050600182168061234b57607f821691505b6020821081141561235f5761235e612304565b5b50919050565b7f4552433732313a20617070726f76616c20746f2063757272656e74206f776e6560008201527f7200000000000000000000000000000000000000000000000000000000000000602082015250565b60006123c1602183611d1e565b91506123cc82612365565b604082019050919050565b600060208201905081810360008301526123f0816123b4565b9050919050565b7f4552433732313a20617070726f76652063616c6c6572206973206e6f7420746f60008201527f6b656e206f776e6572206e6f7220617070726f76656420666f7220616c6c0000602082015250565b6000612453603e83611d1e565b915061245e826123f7565b604082019050919050565b6000602082019050818103600083015261248281612446565b9050919050565b7f4552433732313a2063616c6c6572206973206e6f7420746f6b656e206f776e6560008201527f72206e6f7220617070726f766564000000000000000000000000000000000000602082015250565b60006124e5602e83611d1e565b91506124f082612489565b604082019050919050565b60006020820190508181036000830152612514816124d8565b9050919050565b7f4552433732313a20696e76616c696420746f6b656e2049440000000000000000600082015250565b6000612551601883611d1e565b915061255c8261251b565b602082019050919050565b6000602082019050818103600083015261258081612544565b9050919050565b7f4552433732313a2061646472657373207a65726f206973206e6f74206120766160008201527f6c6964206f776e65720000000000000000000000000000000000000000000000602082015250565b60006125e3602983611d1e565b91506125ee82612587565b604082019050919050565b60006020820190508181036000830152612612816125d6565b9050919050565b600081905092915050565b600061262f82611d13565b6126398185612619565b9350612649818560208601611d2f565b80840191505092915050565b60006126618285612624565b915061266d8284612624565b91508190509392505050565b7f4e6f7420656e6f756768204554482073656e742e000000000000000000000000600082015250565b60006126af601483611d1e565b91506126ba82612679565b602082019050919050565b600060208201905081810360008301526126de816126a2565b9050919050565b7f4f776e61626c653a206e6577206f776e657220697320746865207a65726f206160008201527f6464726573730000000000000000000000000000000000000000000000000000602082015250565b6000612741602683611d1e565b915061274c826126e5565b604082019050919050565b6000602082019050818103600083015261277081612734565b9050919050565b7f4552433732313a207472616e736665722066726f6d20696e636f72726563742060008201527f6f776e6572000000000000000000000000000000000000000000000000000000602082015250565b60006127d3602583611d1e565b91506127de82612777565b604082019050919050565b60006020820190508181036000830152612802816127c6565b9050919050565b7f4552433732313a207472616e7366657220746f20746865207a65726f2061646460008201527f7265737300000000000000000000000000000000000000000000000000000000602082015250565b6000612865602483611d1e565b915061287082612809565b604082019050919050565b6000602082019050818103600083015261289481612858565b9050919050565b7f4e487b7100000000000000000000000000000000000000000000000000000000600052601160045260246000fd5b60006128d582611dce565b91506128e083611dce565b9250828210156128f3576128f261289b565b5b828203905092915050565b600061290982611dce565b915061291483611dce565b9250827fffffffffffffffffffffffffffffffffffffffffffffffffffffffffffffffff038211156129495761294861289b565b5b828201905092915050565b7f4f776e61626c653a2063616c6c6572206973206e6f7420746865206f776e6572600082015250565b600061298a602083611d1e565b915061299582612954565b602082019050919050565b600060208201905081810360008301526129b98161297d565b9050919050565b7f4552433732313a20617070726f766520746f2063616c6c657200000000000000600082015250565b60006129f6601983611d1e565b9150612a01826129c0565b602082019050919050565b60006020820190508181036000830152612a25816129e9565b9050919050565b7f4552433732313a207472616e7366657220746f206e6f6e20455243373231526560008201527f63656976657220696d706c656d656e7465720000000000000000000000000000602082015250565b6000612a88603283611d1e565b9150612a9382612a2c565b604082019050919050565b60006020820190508181036000830152612ab781612a7b565b9050919050565b7f4552433732313a206d696e7420746f20746865207a65726f2061646472657373600082015250565b6000612af4602083611d1e565b9150612aff82612abe565b602082019050919050565b60006020820190508181036000830152612b2381612ae7565b9050919050565b7f4552433732313a20746f6b656e20616c7265616479206d696e74656400000000600082015250565b6000612b60601c83611d1e565b9150612b6b82612b2a565b602082019050919050565b60006020820190508181036000830152612b8f81612b53565b9050919050565b7f45524337323155524953746f726167653a2055524920736574206f66206e6f6e60008201527f6578697374656e7420746f6b656e000000000000000000000000000000000000602082015250565b6000612bf2602e83611d1e565b9150612bfd82612b96565b604082019050919050565b60006020820190508181036000830152612c2181612be5565b9050919050565b600081519050919050565b600082825260208201905092915050565b6000612c4f82612c28565b612c598185612c33565b9350612c69818560208601611d2f565b612c7281611d62565b840191505092915050565b6000608082019050612c926000830187611e63565b612c9f6020830186611e63565b612cac6040830185611f79565b8181036060830152612cbe8184612c44565b905095945050505050565b600081519050612cd881611c84565b92915050565b600060208284031215612cf457612cf3611c4e565b5b6000612d0284828501612cc9565b91505092915050565b6000612d1682611dce565b91507fffffffffffffffffffffffffffffffffffffffffffffffffffffffffffffffff821415612d4957612d4861289b565b5b600182019050919050565b7f4e487b7100000000000000000000000000000000000000000000000000000000600052601260045260246000fd5b6000612d8e82611dce565b9150612d9983611dce565b925082612da957612da8612d54565b5b828204905092915050565b6000612dbf82611dce565b9150612dca83611dce565b925082612dda57612dd9612d54565b5b828206905092915050565b7f4e487b7100000000000000000000000000000000000000000000000000000000600052603260045260246000fdfea2646970667358221220cf8230b830faf2c6ff78d81d76bcc85fa7ea2728192855b3daa956081f77365564736f6c63430008090033",
  "linkReferences": {},
  "deployedLinkReferences": {}
}